:100000000C94B5000C94D2000C94D2000C94D20045
:100010000C94D2000C94D2000C94D2000C94D20018
:100020000C94D2000C94D2000C94D2000C94D20008
:100030000C94D2000C9449010C94D2000C94D20080
:100040000C94D2000C94D2000C94FC000C941F0170
:100050000C94D2000C94D2000C94D2000C94D200D8
:100060000C94D2000C94D2006E616E00696E660032
:1000700000407A10F35A00A0724E18090010A5D45F
:10008000E80000E87648170000E40B54020000CABC
:100090009A3B000000E1F505000080969800000002
:1000A00040420F000000A086010000001027000061
:1000B0000000E803000000006400000000000A00E7
:1000C000000000000100000000002C76D888DC67EA
:1000D0004F0823DFC1DFAE59E1B1B796E5E3E45342
:1000E000C63AE651997696E8E6C28426EB898C9B5F
:1000F00062ED407C6FFCEFBC9C9F40F2BAA56FA5FF
:10010000F490055A2AF75C936B6CF9676DC11BFC80
:10011000E0E40D47FEF520E6B500D0ED902E03009B
:10012000943577050080841E080000204E0A0000E8
:1001300000C80C333333330F986E12831141EF8DA7
:100140002114893BE65516CFFEE6DB18D1844B38E7
:100150001BF77C1D901DA4BBE424203284725E2218
:100160008100C9F124ECA1E53D2711241FBECFEF8A
:10017000D8E0DEBFCDBF11E0A0E0B1E0ECE4F3E1F8
:1001800002C005900D92A437B107D9F722E0A4E789
:10019000B1E001C01D92AB3AB207E1F70E949802AC
:1001A0000C94A4090C940000209176012F5F2F7706
:1001B000909175012917E1F3E22FF0E0E958FE4F25
:1001C000808320937601E1ECF0E08081806280837F
:1001D00008951092C5008093C40088E98093C100FF
:1001E00086E08093C2001092F7011092F8011092FD
:1001F00075011092760108951F920F920FB60F921B
:1002000011248F939F93EF93FF938091C600E09109
:10021000F801EF5FEF77E093F8019091F70191E03B
:1002200090937401F0E0E750FE4F8083FF91EF91CF
:100230009F918F910F900FBE0F901F9018951F9256
:100240000F920FB60F9211248F939F93EF93FF930A
:100250009091760180917501981769F0E091750190
:10026000EF5FEF77E0937501F0E0E958FE4F808192
:100270008093C60005C0E1ECF0E080818F7D808333
:10028000FF91EF919F918F910F900FBE0F901F9054
:1002900018951F920F920FB60F9211248F939F9370
:1002A000EF93FF9380917E028F3FA1F48FEF90E058
:1002B0009093890080938800E0917902F0E0E85CF7
:1002C000FE4F808190E090938B0080938A00109283
:1002D0007E0214C08FEF90E090938B0080938A0091
:1002E000E0917902F0E0E85CFE4F808190E090932D
:1002F0008900809388008FEF80937E02FF91EF91B9
:100300009F918F910F900FBE0F901F901895ECE763
:10031000F0E0808180648083EAE7F0E08081876894
:1003200080830895ECE7F0E09081987F8770892BB7
:100330008083EAE7F0E0808180648083808186FDAD
:10034000FDCF80917800909179000895CF92DF924F
:10035000EF92FF920F931F93CF93DF93109293022C
:10036000E0E00F2EF2E3CF2ED12CE12CF12CF02D7A
:10037000F0E0EE0FFF1FE756FD4F11821082109242
:100380007A0210927B0210927C0210927D021092EF
:100390009402809193020E94920140917A025091BE
:1003A0007B0260917C0270917D02480F591F611D94
:1003B000711D40937A0250937B0260937C0270938C
:1003C0007D02809194028F5F80939402823308F3C0
:1003D00010919302C12FD0E0CC0FDD1FC756DD4F27
:1003E000CB01BA01A70196010E94AD07398328838A
:1003F000E1E0E10FE0939302E63008F4B9CFC0905A
:100400000E01D0900F01E0901001F090110103E86F
:1004100012E0C9E9D2E0688179816F5F7140072EEF
:10042000000C880B990B0E943703A70196010E94CC
:100430007203F80160837183828393836A817B8175
:100440006F5F7140072E000C880B990B0E943703D9
:10045000A70196010E947203F80164837583868365
:1004600097836C817D816F5F7140072E000C880B34
:10047000990B0E943703A70196010E947203F801AD
:1004800060877187828793876A857B856F5F7140FC
:10049000072E000C880B990B0E943703A7019601C9
:1004A0000E947203F80164877587868797876E813B
:1004B0007F81072E000C880B990B0E9437032CEECE
:1004C00031E540EA50E40E94720320E030E040E869
:1004D0005AE30E94720360937F02709380028093BC
:1004E00081029093820268857985072E000C880B23
:1004F000990B0E9437032CEE31E540EA50E40E944C
:10050000720320E030E040E85AE30E9472036093F7
:100510009502709396028093970290939802DF91D0
:10052000CF911F910F91FF90EF90DF90CF900895A2
:1005300084B18F6084B98AB188668AB987E60E94DF
:10054000E90080E091E09093A8028093A7020E94C6
:1005500087018FEF90E090938900809388009093BB
:100560008B0080938A0080E58093B3008CE790E055
:100570009093870080938600E0E8F0E08081826FAE
:100580008083E1E8F0E0808188618083A0EBB0E0C7
:100590008C9183688C93A1EBB0E08C9181608C93FB
:1005A000808181608083EFE6F0E0808181608083DC
:1005B0007894C3E8D2E002E111E0809174018823CD
:1005C00009F446C0809198028F93809197028F938F
:1005D000809196028F93809195028F9380918202F1
:1005E0008F93809181028F93809180028F9380916D
:1005F0007F028F938F858F938E858F938D858F93B9
:100600008C858F938B858F938A858F9389858F9324
:1006100088858F938F818F938E818F938D818F9318
:100620008C818F938B818F938A818F9389818F9314
:1006300088818F931F930F930E9430091092740149
:100640008DB79EB74A960FB6F8949EBF0FBE8DBF6A
:100650000E94A601809179028F5F809379028A338C
:1006600009F0ABCF10927902A8CFE89409C097FBAC
:100670003EF490958095709561957F4F8F4F9F4F79
:100680009923A9F0F92F96E9BB279395F6958795BD
:1006900077956795B795F111F8CFFAF4BB0F11F480
:1006A00060FF1BC06F5F7F4F8F4F9F4F16C0882327
:1006B00011F096E911C0772321F09EE8872F762F5D
:1006C00005C0662371F096E8862F70E060E02AF09E
:1006D0009A95660F771F881FDAF7880F969587958A
:1006E00097F908950E9485030C94F6030E94E8038D
:1006F00038F00E94EF0320F0952311F00C94DF03F3
:100700000C94E50311240C942A040E94070470F34E
:10071000959FC1F3950F50E0551F629FF001729FA6
:10072000BB27F00DB11D639FAA27F00DB11DAA1FB5
:10073000649F6627B00DA11D661F829F2227B00D02
:10074000A11D621F739FB00DA11D621F839FA00D8D
:10075000611D221F749F3327A00D611D231F849FDD
:10076000600D211D822F762F6A2F11249F57504034
:100770009AF0F1F088234AF0EE0FFF1FBB1F661FAF
:10078000771F881F91505040A9F79E3F510580F078
:100790000C94DF030C942A045F3FE4F3983ED4F3F7
:1007A000869577956795B795F795E7959F5FC1F71C
:1007B000FE2B880F911D9695879597F9089597F9C7
:1007C0009F6780E870E060E008959FEF80EC0895F7
:1007D00000240A9416161706180609060895002420
:1007E0000A9412161306140605060895092E03949A
:1007F000000C11F4882352F0BB0F40F4BF2B11F40E
:1008000060FF04C06F5F7F4F8F4F9F4F089557FD6C
:100810009058440F551F59F05F3F71F04795880F6E
:1008200097FB991F61F09F3F79F087950895121605
:1008300013061406551FF2CF4695F1DF08C01616B1
:1008400017061806991FF1CF869571056105089462
:100850000895E894BB2766277727CB0197F9089579
:10086000A0E1B0E0E6E3F4E00C94CF077C011B01CB
:100870006A01FC0117821682838181FF44C39E01B5
:100880002F5F3F4F3901F7019381F10193FD85916E
:1008900093FF81911F01882309F431C3853239F414
:1008A00093FD859193FF81911F01853239F4B70142
:1008B00090E00E94F40856016501E5CF10E0512C4C
:1008C000912CFFE1F915D8F08B3279F038F48032B1
:1008D00079F08332A1F4F92DF0612EC08D3261F0F0
:1008E000803369F4292D21602DC0392D3260932E7B
:1008F000892D8460982E2AC0E92DE86015C097FCE8
:100900002DC020ED280F2A3088F496FE06C03AE06C
:10091000139F200D1124122F19C08AE0589E200D1C
:100920001124522EE92DE0629E2E10C08E3231F439
:1009300096FCE5C2F92DF0649F2E08C08C3621F498
:10094000292D2068922E02C0883641F4F10193FDD2
:10095000859193FF81911F018111B3CF9BEB980F7C
:10096000933020F4992D9061805E07C09BE9980F29
:10097000933008F066C1992D9F7E96FF16E09F7315
:10098000992E853619F49064992E08C0863621F484
:10099000392F3068932E02C01111115097FE07C0F5
:1009A0001C3350F444244394410E27E00BC018300C
:1009B00038F027E017E005C027E09CE3492E02C08D
:1009C000212F412C560184E0A80EB11CF601608154
:1009D000718182819381042DA3010E9406086C011C
:1009E000F981FC87F0FF02C0F3FF06C091FC06C04E
:1009F00092FE06C000E205C00DE203C00BE201C09A
:100A000000E08C858C7019F001115AC29BC297FED0
:100A100010C04C0CFC85F4FF04C08A81813309F4BA
:100A20004A94141474F528E0241578F588E0482ECB
:100A30002CC096FC2AC0812F90E08C159D059CF05F
:100A40003CEFC3163FEFD30674F0892D8068982ED3
:100A50000AC0E2E0F0E0EC0FFD1FE10FF11D808124
:100A6000803319F411501111F4CF97FE0EC04424B5
:100A70004394410E812F90E0C816D9062CF41C191E
:100A800004C04424439401C010E097FE06C01C1427
:100A90001D0434F4C601019605C085E090E002C053
:100AA00081E090E001110196112331F0212F30E017
:100AB0002F5F3F4F820F931F252D30E08217930742
:100AC00014F4581A01C0512C892D897049F455200D
:100AD00039F0B70180E290E00E94F4085A94F7CF11
:100AE000002329F0B701802F90E00E94F40893FCC6
:100AF00009C0552039F0B70180E390E00E94F40866
:100B00005A94F7CF97FE4CC04601D7FE02C0812C05
:100B1000912CC60188199909F301E80FF91FFE8786
:100B2000ED87960124193109388B2F87012F10E0AA
:100B30001195019511093FEF8316930629F4B7012A
:100B40008EE290E00E94F408C814D9044CF08F851E
:100B500098898815990524F4ED85FE85818101C069
:100B600080E3F1E08F1A91082D853E852F5F3F4F7E
:100B70003E872D87801691062CF0B70190E00E94E9
:100B8000F408D9CFC814D90441F49A81963320F4DB
:100B9000953319F43C8534FF81E3B70190E04EC0F2
:100BA0008A81813319F09C859F7E9C87B70190E0F4
:100BB0000E94F408111105C094FC18C085E690E06D
:100BC00017C0B7018EE290E00E94F4081E5F82E039
:100BD00001E0080FF301E80FF11D8081B70190E0FB
:100BE0000E94F408802F0113F3CFE6CF85E490E054
:100BF000B7010E94F408D7FC06C0C114D10441F427
:100C0000EC85E4FF05C0D194C194D1088DE201C008
:100C10008BE2B70190E00E94F40880E32AE0C2165C
:100C2000D1042CF08F5FFAE0CF1AD108F7CFB701CB
:100C300090E00E94F408B701C601C0960E94F40833
:100C400054C1833631F0833779F0833509F056C0CB
:100C500020C0560132E0A30EB11CF60180818983C9
:100C600001E010E0630112C05601F2E0AF0EB11CCA
:100C7000F601C080D18096FE03C0612F70E002C0F3
:100C80006FEF7FEFC6010E94E9088C01F92DFF7715
:100C900014C0560122E0A20EB11CF601C080D18022
:100CA00096FE03C0612F70E002C06FEF7FEFC601B8
:100CB0000E94DE088C01F92DF0689F2EF3FD1AC00A
:100CC000852D90E008171907A8F4B70180E290E09D
:100CD0000E94F4085A94F4CFF60197FC859197FE90
:100CE00081916F01B70190E00E94F40851105A946D
:100CF000015011090115110579F7F7C0843611F07B
:100D0000893661F5560197FE09C024E0A20EB11C98
:100D1000F60160817181828193810AC0F2E0AF0E99
:100D2000B11CF60160817181072E000C880B990BB4
:100D3000F92DFF769F2E97FF09C0909580957095AD
:100D400061957F4F8F4F9F4FF0689F2E2AE030E0D4
:100D5000A3010E944609C82EC6183FC0092D853739
:100D600021F40F7E2AE030E01DC0097F8F3691F01C
:100D700018F4883559F0C3C0803719F0883711F05E
:100D8000BEC0006104FF09C0046007C094FE08C033
:100D9000066006C028E030E005C020E130E002C077
:100DA00020E132E0560107FF09C084E0A80EB11C23
:100DB000F601608171818281938108C0F2E0AF0EFB
:100DC000B11CF6016081718180E090E0A3010E9476
:100DD0004609C82EC6180F77902E96FE0BC0092D17
:100DE0000E7FC11650F494FE0AC092FC08C0092D73
:100DF0000E7E05C0DC2C092D03C0DC2C01C0D12ED9
:100E000004FF0DC0FE01EC0DF11D8081803311F453
:100E1000097E09C002FF06C0D394D39404C0802F7A
:100E2000867809F0D39403FD11C000FF06C01C2D85
:100E3000D51480F4150D1D190DC0D51458F4B70143
:100E400080E290E00E94F408D394F7CFD51410F418
:100E50005D1801C0512C04FF10C0B70180E390E081
:100E60000E94F40802FF17C001FD03C088E790E06C
:100E700002C088E590E0B7010CC0802F867859F059
:100E800001FF02C08BE201C080E207FD8DE2B701E5
:100E900090E00E94F408C11638F4B70180E390E0B6
:100EA0000E94F4081150F7CFCA94F301EC0DF11D24
:100EB0008081B70190E00E94F408C110F5CF15C001
:100EC000F4E0F51560F584E0581A93FE1FC0011197
:100ED00027C02C8523FF2AC008E610E0392D307189
:100EE000932EF8018491811124C0552009F4E4CC9B
:100EF000B70180E290E00E94F4085A94F6CFF7011F
:100F00008681978126C08FEF9FEF23C0B70180E2D3
:100F100090E00E94F4085A945110F8CFD8CF512C89
:100F2000B701802F90E00E94F408D3CF0CE610E0C8
:100F3000D5CF91108052B70190E00E94F4080F5F66
:100F40001F4FCFCF23E0251510F483E0BDCF512CE8
:100F5000C0CF6096E2E10C94EB07A1E21A2EAA1B27
:100F6000BB1BFD010DC0AA1FBB1FEE1FFF1FA21759
:100F7000B307E407F50720F0A21BB30BE40BF50B56
:100F8000661F771F881F991F1A9469F760957095DF
:100F9000809590959B01AC01BD01CF0108952F92E2
:100FA0003F924F925F926F927F928F929F92AF92F9
:100FB000BF92CF92DF92EF92FF920F931F93CF9346
:100FC000DF93CDB7DEB7CA1BDB0B0FB6F894DEBFDD
:100FD0000FBECDBF09942A88398848885F846E8403
:100FE0007D848C849B84AA84B984C884DF80EE804D
:100FF000FD800C811B81AA81B981CE0FD11D0FB656
:10100000F894DEBF0FBECDBFED010895283008F083
:1010100027E03327DA01990F311D87FD9160009693
:101020006105710539F432602E5F3D9330E32A95F6
:10103000E1F708959F3F30F080387105610509F0B0
:101040003C5F3C5F3D93913008F08068911DDF93D9
:10105000CF931F930F93FF92EF92192F987F96953E
:10106000E92F96959695E90FFF27E653FF4F9927AD
:101070003327EE24FF24A701E70105900894079485
:1010800028F4360FE71EF81E491F511D660F771F03
:10109000881F991F0694A1F70590079428F4E70E7E
:1010A000F81E491F561FC11D770F881F991F661F05
:1010B0000694A1F70590079428F4F80E491F561FCF
:1010C000C71FD11D880F991F661F771F0694A1F7B0
:1010D0000590079420F4490F561FC71FD81F990F7A
:1010E000661F771F881F0694A9F7849110951770C3
:1010F00041F0D695C79557954795F794E7941A957B
:10110000C1F7E0E7F0E0689415901591359165918D
:10111000959105907FE27395E118F10A430B560B08
:10112000C90BD009C0F7E10CF11E431F561FC91FA0
:10113000D01D7EF4703311F48A95E6CFE894015007
:1011400030F0080F0AF40027021708F4202F239527
:10115000022F7A3328F079E37D932A95E9F710C0BE
:101160007D932A9589F606949795679537951795F7
:101170001794E118F10A430B560BC90BD00998F0EC
:1011800023957E9173957A3308F070E37C93201356
:10119000B8F77E9170617D9330F0839571E37D9314
:1011A00070E32A95E1F71124EF90FF900F911F91C2
:1011B000CF91DF91992787FD90950895FC010590C7
:1011C000615070400110D8F7809590958E0F9F1F49
:1011D0000895FC016150704001900110D8F780958E
:1011E00090958E0F9F1F08950F931F93CF93DF93BA
:1011F000FB01238121FD03C08FEF9FEF2CC022FF55
:1012000016C046815781248135814217530744F423
:10121000A081B1819D012F5F3F4F318320838C934B
:10122000268137812F5F3F4F3783268314C08B0180
:10123000EC01FB010084F185E02D0995892BE1F695
:10124000D80116968D919C911797019617969C93AD
:101250008E931697CE01DF91CF911F910F91089534
:10126000A0E0B0E0E6E3F9E00C94DF07AE014B5FED
:101270005F4FFA0161917191AF018091A702909146
:10128000A8020E943004E2E00C94FB07FA01AA27AE
:10129000283051F1203181F1E8946F936E7F6E5FB9
:1012A0007F4F8F4F9F4FAF4FB1E03ED0B4E03CD067
:1012B000670F781F891F9A1FA11D680F791F8A1F4A
:1012C000911DA11D6A0F711D811D911DA11D20D0B1
:1012D00009F468943F912AE0269F11243019305D6B
:1012E0003193DEF6CF010895462F4770405D41935C
:1012F000B3E00FD0C9F7F6CF462F4F70405D4A33A9
:1013000018F0495D31FD4052419302D0A9F7EACF70
:10131000B4E0A6959795879577956795BA95C9F79F
:1013200000976105710508959B01AC010A2E069492
:101330005795479537952795BA95C9F7620F731F4B
:0C134000841F951FA01D0895F894FFCF96
:10134C000000000200000000D4000000000025583E
:10135C00BC3E25342E32662C25322E32662C25349A
:10136C002E32662C25342E32662C25342E32662CE9
:10137C0025342E32660A0D0078767472706E6C6AA3
:10138C0068666462605E5C5A58565452504E4C4AC1
:10139C00484644403E3C3A38363432302E2C2A28CB
:1013AC00262422201E1C1A18161412100E0C0A08C1
:0413BC000604020021
:00000001FF
