:04000000B9EF00F064
:08000800046ED8CF05F0E0CF33
:1000100006F00001E9CF0CF0EACF07F0E1CF08F0DD
:10002000E2CF09F0D9CF0AF0DACF0BF0F3CF12F01C
:10003000F4CF13F0FACF14F0F5CF15F0F6CF16F099
:10004000F7CF17F000C00EF001C00FF002C010F0A3
:1000500003C011F09DA230EF00F09EB27FEF00F0E0
:100060000EC000F00FC001F010C002F011C003F08C
:100070000CC0E9FF07C0EAFF078E08C0E1FF09C016
:10008000E2FF0AC0D9FF0BC0DAFF12C0F3FF13C0B2
:10009000F4FF14C0FAFF15C0F5FF16C0F6FF17C035
:1000A000F7FF045006C0E0FF05C0D8FF1000F76A54
:1000B000BE0FF66E000EF7220900F5501200000583
:1000C0000A0F14181D22262B2F33383C3F43474A72
:1000D0004D505356585A5C5E606162636464646458
:1000E00064636261605E5C5A585653504D4A4743A0
:1000F0003F3C38332F2B26221D18140F0A05800E83
:100100001B24196E000E1C201A6E1A501C5C15E37D
:1001100003E11B50195C11E225B008D0F00EBD16AA
:1001200094928B920C0EBA6E258007D0F00EBA1600
:1001300094948B940C0EBD6E2590206A1A301F6E1D
:100140001F323F0E1F1620C024F01FC023F024C012
:1001500003F02350ACDFBE6E24C003F02350A7DFB2
:10016000BB6E1AC01CF019C01BF09E929E9230EF1D
:1001700000F0F86AD09E078EC150C00B0F09C16E07
:10018000070EB46E000E936E0409CA6E740ECB6E29
:10019000F00EBD16BA169D82C00EF212FFD70300F4
:020000040030CA
:0E00000023CE3E1E008781000FC00FE00F4090
:00000001FF
;PIC18F2550
;CRC=8354  CREATED="31-Mar-18 15:02"
