:1000000001308A0030290000FF00030E8301A100A7
:100010000A08A0008A010408A2007708A300780853
:10002000A4007908A5007A08A600831383128C30F7
:100030008400801C1D288C182E2822088400230888
:10004000F7002408F8002508F9002608FA0020081F
:100050008A00210E8300FF0E7F0E09008A110A120A
:10006000B5280A108A100A118207003400341934A6
:10007000003431340034493400346234003479348B
:10008000003491340034A8340034BF340034D63402
:100090000034EC34003401340134163401342A3491
:1000A00001343D340134503401346234013472344B
:1000B00001348334013492340134A0340134AD343A
:1000C0000134B9340134C4340134CE340134D7346A
:1000D0000134DE340134E5340134EA340134EF34E0
:1000E0000134F2340134F3340134F4340134F334A0
:1000F0000134F2340134EF340134EA340134E534AC
:100100000134DE340134D7340134CE340134C43404
:100110000134B9340134AD340134A03401349234A3
:100120000134833401347234013462340134503484
:1001300001343D3401342A3401341634013401349D
:100140000134EC340034D6340034BF340034A834E5
:10015000003491340034793400346234003449344A
:10016000003431340034193400349A302907A700A0
:100170002A08A800013003180230A80728082A021C
:10018000031CE128031DC828290827020318E128B9
:100190003318D628F0309705B4103408831687003A
:1001A000831287100C309D003314E128F0309D0538
:1001B0003411340883168700831207110C3097001E
:1001C0003310AE01280CAD00AD0C3F30AD052E084C
:1001D000B2002D08B1000310310DF900320DFA0004
:1001E0007908B500790A3120FA0035083120B500C8
:1001F0007A08B600B60CB50CB60CB50CB60C3508C2
:100200009500B60C360C3039F7001708CF39770453
:1002100097000310310DF900320DFA007908B5008E
:10022000790A3120FA0035083120B5007A08B60085
:10023000B60CB50CB60CB50CB60C35089B00B60C5C
:10024000360C3039F7001D08CF3977049D00280897
:10025000AA002708A9008C108C108A110A121D28E8
:1002600003081F398300FF30B40083161F149F1446
:100270001F159F1107309C008313003086008700F4
:100280008312B400F800043892007C308316920088
:10029000F030831297059D0583168C14C0308312AD
:0602A0008B0451296300EC
:02400E00723FFF
:00000001FF
;PIC16F876A
;CRC=BA99  CREATED="16-Apr-18 11:26"
