:1000000000308A00192800006D3084008313000836
:10001000031918280530F800F701F70B0D28F80B25
:100020000C282E30F700F70B13281628800B0A280F
:10003000080003081F398300C001C101D601D501A2
:10004000D401D301DA01D901D801D701DE01DD01E4
:10005000DC01DB01FF30EB0083161F149F141F151A
:100060009F1107309C008313FF308600850080308D
:1000700087008312EB00C214EA01E901E801E701FD
:100080004210D201D1010714C211421183161F136D
:1000900083121F179F1783169F1783121F1483162F
:1000A0001F109F141F159F150030F80083121F08A2
:1000B000C73978049F000A30ED0004208716083005
:1000C000EC00FA30ED000420EC0B612887120030C0
:1000D000EB008316870183128701C21C0710C21828
:1000E00007141F151F19722883161E088312CF00CC
:1000F0001E08D0006430ED0004205008013C0318B5
:10010000A228FF3A031D88284F08263C0318A2287E
:100110005008023C031CA228031D92284F08953C5E
:10012000031CA2288716D10A0319D20AD208031D7C
:100130009D285108313C0318A128C2148712D2010E
:10014000D101B5285008013C0318B228FF3A031D1D
:10015000AD284F08963C0318B2280714C214D201E8
:10016000D101B528D201D1018712061CC028643004
:10017000ED000420061CC0280230C2060618BE2866
:040180006D28630083
:02400E00723FFF
:00000001FF
;PIC16F876A
;CRC=D6D6  CREATED="01-May-18 02:46"
