:020000040000FA
:100000000001040000000000301A0000301A000057
:10001000301A0000301A0000301A0000301A0000B8
:10002000301A0000301A0000301A0000301A0000A8
:10003000301A0000301A0000301A0000301A000098
:10004000D80F0000301A0000301A0000301A0000EB
:10005000301A0000FC0C0000301A0000301A0000BA
:10006000301A000064050000E4110000301A00009E
:10007000301A0000301A0000301A0000301A000058
:10008000301A0000301A0000301A0000301A000048
:10009000301A0000301A0000301A0000301A000038
:1000A000301A0000301A0000301A0000301A000028
:1000B000301A0000301A0000301A0000301A000018
:1000C000301A0000A2100000301A0000301A0000A0
:1000D000301A0000B6110000301A0000301A00007B
:1000E000301A0000301A0000301A0000301A0000E8
:1000F000301A0000301A0000301A0000301A0000D8
:10010000FFFFFF00FFFFFF00301A0000301A000061
:10011000301A0000301A0000301A0000301A0000B7
:10012000301A0000301A0000301A0000301A0000A7
:10013000301A0000301A0000301A0000301A000097
:10014000D80F0000301A0000301A0000301A0000EA
:10015000301A0000FC0C0000301A0000301A0000B9
:10016000301A000064050000E4110000301A00009D
:10017000301A0000301A0000301A0000301A000057
:10018000301A0000301A0000301A0000301A000047
:10019000301A0000301A0000301A0000301A000037
:1001A000301A0000301A0000301A0000301A000027
:1001B000301A0000301A0000301A0000301A000017
:1001C000301A0000A2100000301A0000301A00009F
:1001D000301A0000B6110000301A0000301A00007A
:1001E000301A0000301A0000301A0000301A0000E7
:1001F000301A0000301A0000301A0000301A0000D7
:100200004F952000809F2000000188000000000022
:10021000050007000C000700C415020000000000E4
:100220000040DA000000FE004440A90080302000B9
:100230000000E0000300320000002000A001880060
:100240004440A80000000600C09C210001002000DE
:100250001600370062004000E080480091018800ED
:100260009001BA0062004000E080480091018800DF
:100270009002BA0062004000E08048000002EB00FB
:100280006028E10005003A008301E900070033001F
:10029000038009000059EB00040037006128E100E9
:1002A000010032000082EB00050007009101880088
:1002B0001001BA000200E000E6FF3A00000005006D
:1002C000910188008002780062004000E0804800D0
:1002D0003559BA008301E900080032002559BA00F7
:1002E0008301E900050032000400E000F4FF320061
:1002F00015D9BA008301E900F1FF3A0000000600B9
:100300000000E00001003D000000EA0000000600DF
:10031000889FBE008A9FBE00010578000100E000B2
:100320000400350008003C000000E000200032001E
:100330000500370060001000E080180002003B005C
:1003400001F02C001A0037000004BE006011B80054
:100350006B0920000982CF00020039000882CF001B
:100360000441B000694252000E00320008003B0018
:1003700082817100610164008904D1000884D30086
:100380008B05E8000442E800F9FF3A000500370059
:100390000804440089844C008B05E9000442E9000C
:1003A000FBFF3A00080107000AF0A70001F0A000D7
:1003B0004F05BE004F04BE000000060003F0A2007F
:1003C000889FBE008A9FBE008C1F78002401070012
:1003D0002B0133006450E1004F0032006420E10043
:1003E0005200320003826C0007003B000905D00078
:1003F0000306D000820F54000C065D000200390095
:1004000002003200890178000306780085825500D9
:1004100004003D000003FD008103FD008502EA00A9
:100420008B854200840F720002003B0060001000C8
:10043000E08018006011B8000005EB007A28E100A8
:100440000A00390006007800C75DDD00F707B2003A
:10045000878075002D003700828171000A017800C5
:10046000610560008180D1000080D3008502E90031
:10047000F9FF3B00060440008784480002003B006F
:1004800060041400E0841C000988A3000700320007
:100490008A81710082817100610164008904D10048
:1004A0000884D3008B05E800170037000978A30003
:1004B00013003A000B00E000130034008B05E90044
:1004C0000804440089844C000A4474000978A3009D
:1004D0000D003A000B00E000070034008B05E90036
:1004E0000804440089844C0001003A000B002000FD
:1004F0000978A300F7FF32000001EB00020037008B
:10050000828171000A017800AF0007000CF0A7009B
:1005100001F0A000E30037006420E10002003A008F
:10052000838F6C00E30033000801BE000200BE00B0
:10053000DC003700889FBE008A9FBE008C1F7800B9
:10054000C7000700CE00330003866C006450E10052
:10055000240032006420E100270032006150E100F5
:10056000220032006120E100210032008B85420030
:10057000EB07B1000134B800003AB80008044200AB
:1005800089844A00013AB8000030B80088804000F1
:1005900009014A0004003300000040008180480047
:1005A000020149008B05E900C909DD0083017000E3
:1005B0000100320013002000C814DE004814DD00E2
:1005C0004709DE001200B200C808DE00088470008F
:1005D0007D00070001F0A1000CF0A70001F0A000D1
:1005E000B00037006120E100B20032000801BE0017
:1005F0000200BE00F7FF37006150E100FCFF3A0047
:10060000AC0037000001BE00AD0007000470A70079
:1006100003F0A10003F8A30013003A006509B1003C
:1006200010003200090035006928E10002003500A1
:100630000100280000000500000040008180480003
:100640008502E900FCFF3A0000000600F88F420036
:10065000050035008100D1000080D3008502E8004C
:10066000FCFF3A00000006008000EB0000000500DF
:100670006022B800060220000000D0008180D20075
:100680000482D2008582D2000000A0000202520043
:1006900083825A0003003B000202420083824A0028
:1006A0000000A1000603E900F3FF3A000000060085
:1006B000889FBE008A9FBE008C1F780068000700DC
:1006C0006F00330003866C006450E1002E0032009E
:1006D0006420E100330032006150E1002F0032005D
:1006E0006120E1003100320085855500EB07B00044
:1006F0000900200008042000050037000804440019
:1007000089844C000A0031000603430087834B00B4
:100710000001530081815B00F8FF33000203BE003B
:100720000800A0000804440089844C00F6FF39004A
:10073000C639DD0083017300010032001300200080
:100740008904D1000884D3000998A3000500320071
:100750000800A7000300A0008904D1000884D3008A
:100760008B05E8008904D1000884D3000001EB0068
:100770000281D2001400070001F0A1000CF0A700D4
:1007800001F0A000470037006420E100490032007A
:100790000801BE000200BE00F7FF37006120E10043
:1007A000440032006000B800F3FF37000000200072
:1007B00001F82700F0FF3700140020005500370033
:1007C000F4FF2F00530037008100200061805500A6
:1007D0000B003D000B00200061FE2F000100E10036
:1007E0001D00340082817100610164008904D10020
:1007F0000884D3000000E800FAFF3A0071002000EE
:100800006100640003007000020060000900320013
:1008100061044400E0844C000988A5000500320012
:100820008B05E8006808E10002003A008904D10065
:100830000884D300F20F20000258E10005003D00BB
:10084000C75DDD00F907B2008980750008007800F7
:10085000000006000BF827008B0078000000050060
:100860000004BE00160007000003BE000405BE0021
:100870000200BE0012000700844F75000000060051
:100880000200BE006450E100050036006420E10073
:10089000020036000968A30001003A000800BE000B
:1008A0000160A0004F0678004F05BE004F04BE0057
:1008B00000000600F0FF2F00F1FF2700F9FF3700CE
:1008C000C70ADE00F107B200F50FB20008003200DF
:1008D000E1CF4200020032000170A00024000500B8
:1008E000810F70000100320004080500440005007B
:1008F000810F700002003A00140005008502E90033
:100900000000400081C04800FCFF3B000170A000D7
:1009100024000500889FBE008A9FBE00841F7800C7
:10092000CFFF07004F00780011003300F0FF2F00C9
:10093000838F6C0006003B00040565000A00A700D9
:100940000800370009F0A60010002000080037005A
:10095000820F5400838F5C000300390010002000D8
:1009600001003E000000200009F0A7000000EA009E
:100970004F05BE004F04BE000000E000000006006E
:100980000200FA00004F78001E4FE90000C0EB00A3
:100990009E4F1000FCFF3A000080FA0000000600A5
:1009A0000400FA0010079800A0C0B300004F7800C0
:1009B00040C6B300F2FF07001E4FE9001E04E0002E
:1009C000FBFF3A001E0090000000E90010079800AD
:1009D0001E0090000000E000F3FF3A000080FA00E3
:1009E000000006000000FA00D222A900D202A900ED
:1009F000CDA2A800CDC2A800B10920009140780086
:100A0000F0C8B30000C0600001C2B3000140700034
:100A10009BE0B7008DE0A800C000A800C020A8009F
:100A2000D8A2A900DE62A900D882A9000080FA003D
:100A3000000006000000FA00F0072000004A8800CD
:100A400000C02F00104A8800114A8000004A800030
:100A500013002000429420009F080700E046880011
:100A6000204A800012E9B7000080FA00000006006A
:100A70000000FA00F0072000004A880000C02F00A4
:100A8000104A880012C9BF000080FB00204A88007D
:100A9000114A8000004A8000120020009B080700D5
:100AA000E0468800124A8000014A800013002000BE
:100AB00040942000B9080700E04688000060FE006E
:100AC0000080FA00000006003600F800809FBE009B
:100AD000829FBE00849FBE00869FBE003400F80047
:100AE00000C0B300A00188000000FA0085E0A90062
:100AF000D6C8BF000042B2000004E0003C00320053
:100B0000CFC2BF000044B2000004E0000E0032007B
:100B1000F0002000A2FF0700CFC2BF000044B200D7
:100B20000004E00008003200E1C8BF000040E80017
:100B3000E1E8B700E1C8BF00E54F50000200360011
:100B40000040EB00E1E8B700CFC2BF000042B200B6
:100B50000004E0001F003200000000000000000060
:100B60000000000000000000800220008CFF070051
:100B7000CFC2BF000042B2000004E0001500320006
:100B8000CFC2BF000042B2000004E00011003200FA
:100B9000D6C8BF00614060000040E80061406000CE
:100BA00061416000618D200091407800E0CFB3008A
:100BB00000C0600002407000D6E8B700D6C8BF0091
:100BC000614060000080FB00E10F50000100340034
:100BD000D608A900D6C8BF00614060000004E0004C
:100BE00003003A00D7A8A900D7C8A900D768A90070
:100BF000D6C8BF000042B2000004E00018003A006E
:100C0000CFC2BF000044B2000004E0000800320080
:100C1000E1C8BF000040E800E1E8B700E1C8BF005C
:100C2000E64F50000200360070C0B300E1E8B700A4
:100C3000CFC2BF000042B2000004E0000800320052
:100C4000CFA2A900D608A9000040EB00E1E8B70058
:100C500087FF0700D6A8A80000FA20007048880087
:100C60000000EB00204788000000EB0010478800E0
:100C700085E0A9000080FA003400F9004F03BE00AF
:100C80004F02BE004F01BE004F00BE003600F9000B
:100C9000004006000600FA00404798000040EB00C4
:100CA0002047980000C8B300104798000040EB00B0
:100CB000004F7800D602A800D622A80048003700CE
:100CC000D602A8001E80FB00E70010002086290045
:100CD0006141780012479800CE4090001E4090007D
:100CE00000C06000204798002E4090000004E00003
:100CF00002003A00D622A90001003700D622A8003F
:100D0000D602A80000000000000000000000000063
:100D100000000000000000000000000000000000D3
:100D200000000000000000000000000000000000C3
:100D300000000000000000000000000000000000B3
:100D400000000000D602A900000000000000000022
:100D50000000000000000000000000000000000093
:100D60000000000000000000000000000000000083
:100D70000000000000000000000000000000000073
:100D80000000000000000000000000000000000063
:100D90000000000000000000000000000000000053
:100DA0000000000000000000D602A900D602A90041
:100DB0000000000000000000000000000000000033
:100DC0000000000000000000000000000000000023
:100DD0000000000000000000D602A8001E4FE8003E
:100DE00070C0B3009E4F1000B5FF36000080FA00BF
:100DF000000006000600FA002007980030002000DE
:100E000010079800180037002E00900042062000BE
:100E1000110009000280D8008000FD00000F78005A
:100E20009E0190001E007800A20020001100090021
:100E30000200D8008000FD00EF406000008020002C
:100E400000804100014878002E009000A2002000A0
:100E5000110009000280D800200798001E009000B1
:100E60000000E900100798001E0090000000E0005C
:100E7000E5FF3D000000EB000080FA0000000600E6
:100E80000C00FA007147800080112000808F500014
:100E9000030036000040EB007EFF070092003700A1
:100EA000714780000040EB00304F9800E0102000B8
:100EB000808F50000200360011C0B300314F9800FF
:100EC000714780000041EB00224F98008011200004
:100ED000808F500002003E0010C0B300204F9800E9
:100EE000BE4890002E49900002C060000004E0005F
:100EF0000300320010C0B30066FF07007A0037001D
:100F0000714780000040EB00104F98004010200017
:100F1000808F50000200360011C0B300114F9800BE
:100F2000714780000041EB00024F9800E010200064
:100F3000808F500002003E0010C0B300004F9800A8
:100F40009E4890000E49900002C060000004E0003E
:100F50000300320030C0B3004EFF070062003700CC
:100F6000714780000040EB0070479800A00F200000
:100F7000808F50000200360011C0B3007147980006
:100F8000714780000041EB0062479800401020004C
:100F9000808F500002003E0010C0B30060479800F0
:100FA000FE4090006E41900002C060000004E0002E
:100FB0000300320070C0B30036FF07004A0037005C
:100FC000714780000040EB0050479800000F200060
:100FD000808F50000200360011C0B30051479800C6
:100FE000714780000041EB0042479800A00F2000AD
:100FF000808F500002003E0010C0B30040479800B0
:10100000DE4090004E41900002C060000004E0000D
:1010100003003200F0C0B3001EFF070032003700AB
:10102000714780000040EB0030479800600E2000C0
:10103000808F50000200360011C0B3003147980085
:10104000714780000041EB0022479800000F20000C
:10105000808F500002003E0010C0B300204798006F
:10106000BE4090002E41900002C060000004E000ED
:1010700003003200F0C1B30006FF07001A0037007A
:10108000714780000040EB0010479800C00D200021
:10109000808F50000200360011C0B3001147980045
:1010A000714780000041EB00024F7800600E200085
:1010B000808F500002003E0010C0B300004F780047
:1010C0009E4090001E41780002C060000004E000D5
:1010D00003003200F0C3B300EEFE07000200370049
:1010E000F0C7B300EBFE07000080FA000000060026
:1010F0000000FA00D6C8BF00614060000004E000B4
:1011000006003200E1C8BF008080FB00A0872900F4
:1011100061407800DFFE070005003700E1C8BF002E
:101120008080FB002088290061407800D9FE0700FC
:101130000080FA00000006000200FA00000F7800AC
:101140001E0078002BFF07004DFF0700E8FF070097
:1011500003C8BF000080FB002040880020408000C2
:101160006F0060002040880021408000E08429005A
:10117000614078000080FB00204088002040800013
:10118000C4FE070002C8BF000080FB0020408800AA
:10119000204080006F0060002040880021408000D7
:1011A000E0842900614078000080FB002040880036
:1011B00020408000B7FE070001C8BF000080FB0090
:1011C00020408800204080006F00600020408800A0
:1011D0002140800080852900614078000080FB006C
:1011E0002040880020408000AAFE070000C8BF0001
:1011F0000080FB0020408800204080006F006000DD
:101200002040880021408000E0842900614078006F
:101210000080FB0020408800204080009DFE0700E9
:101220000080FA00000006000200FA00000F7800BB
:101230001E007800EFFE070011FF0700ACFF07005B
:1012400003C8BF000080FB002040880020408000D1
:101250006F0060002040880021408000E084290069
:10126000614078000080FB00204088002040800022
:1012700088FE070002C8BF000080FB0020408800F5
:10128000204080006F0060002040880021408000E6
:10129000E0842900614078000080FB002040880045
:1012A000204080007BFE070001C8BF000080FB00DB
:1012B00020408800204080006F00600020408800AF
:1012C00021408000E0842900614078000080FB001C
:1012D00020408800204080006EFE070000C8BF004C
:1012E0000080FB0020408800204080006F006000EC
:1012F0002040880021408000E0842900614078007F
:101300000080FB00204088002040800061FE070034
:101310000080FA00000006000200FA00000F7800CA
:101320001E007800B3FE0700D5FE070070FF07001F
:1013300003C8BF000080FB002040880020408000E0
:101340006F0060002040880021408000E084290078
:10135000614078000080FB00204088002040800031
:101360004CFE070002C8BF000080FB002040880040
:10137000204080006F0060002040880021408000F5
:1013800080852900614078000080FB0020408800B3
:10139000204080003FFE070001C8BF000080FB0026
:1013A00020408800204080006F00600020408800BE
:1013B00021408000E0842900614078000080FB002B
:1013C000204088002040800032FE070000C8BF0097
:1013D0000080FB0020408800204080006F006000FB
:1013E0002040880021408000E0842900614078008E
:1013F0000080FB00204088002040800025FE070080
:101400000080FA00000006000000FA0000C0EB00B7
:1014100020FE0700E0C8BF00E24F500004003E007D
:10142000E0C8BF000040E800E0E8B7000200370075
:101430000040EB00E0E8B700E0C8BF00E14F50001B
:1014400003003E00F0C7B30012FE070002003700A1
:1014500000C0EB000FFE070000C0EB000DFE070010
:1014600000C0EB000BFE07000080FA000000060041
:101470000000FA00F0C7B30006FE0700D7C8BF009F
:101480000042B2000004E0000300320090CFB3003D
:1014900000FE070018003700D7C8BF000044B200A4
:1014A0000004E0000300320040CAB300F9FD070069
:1014B00011003700D7C8BF00684060000004E0009A
:1014C0000300320000CBB300F2FD07000A00370032
:1014D000D7C8BF0001C8B300014060000004E000AD
:1014E0000300320020C8B300EAFD07000200370005
:1014F0000040EB00E7FD0700F0CBB300E5FD07007F
:1015000060C8B300E3FD070020CCB300E1FD070095
:101510000080FA00000006000000FA00204780006A
:101520000000E800204788002147800080DE2F006F
:10153000808F500005003600104780000000E80052
:10154000104788000000EB0020478800104780000B
:10155000E10F500006003600D668A8000000EB003E
:101560002047880030032000104788000100370022
:10157000D668A9000080FA00000006000200FA0008
:10158000000F78001E0078001AFE07000040EB00F4
:10159000C0FD070003C8BF000080FB00204088009A
:1015A000204080006F0060002040880021408000C3
:1015B000E0842900614078000080FB002040880022
:1015C00020408000B3FD070002C8BF000080FB0080
:1015D00020408800204080006F006000204088008C
:1015E00021408000E0842900614078000080FB00F9
:1015F0002040880020408000A6FD070001C8BF00F1
:101600000080FB0020408800204080006F006000C8
:101610002040880021408000E0842900614078005B
:101620000080FB00204088002040800099FD0700DA
:1016300000C8BF000080FB002040880020408000E0
:101640006F0060002040880021408000E084290075
:10165000614078000080FB0020408800204080002E
:101660008CFD07000080FA00000006000200FA006E
:10167000000F78001E007800DEFD0700208829009A
:1016800070F8910083FD070003C8BF000080FB00D5
:1016900020408800204080006F00600020408800CB
:1016A00021408000E0842900614078000080FB0038
:1016B000204088002040800076FD070002C8BF005F
:1016C0000080FB0020408800204080006F00600008
:1016D0002040880021408000E0842900614078009B
:1016E0000080FB00204088002040800069FD07004A
:1016F00001C8BF000080FB0020408800204080001F
:101700006F0060002040880021408000E0842900B4
:10171000614078000080FB0020408800204080006D
:101720005CFD070000C8BF000080FB00204088006F
:10173000204080006F006000204088002140800031
:10174000E0842900614078000080FB002040880090
:10175000204080004FFD07000080FA0000000600D6
:101760001000FA00881F7800D7C8BF000042B200FE
:10177000504F98005E4890000004E00002003200E4
:1017800011C0B300514F98005E499000424F98003D
:10179000D7C8BF000044B200604F98006E48900068
:1017A0000004E0000200320011C0B300614F980055
:1017B0006E4890004E499000004071000080FB0090
:1017C00050079800D7C8BF00684060008000EB0059
:1017D000410798000004E0000200320012002000DF
:1017E000420798005E009000CE009000010070005B
:1017F00030079800D7C8BF0001C8B300014060009F
:101800000001EB00220798000004E0000200320013
:101810001000200020079800BE0090002E019000CC
:10182000028070000000E0000200320010FF07009C
:1018300055003700D6C8BF000042B2000004E000E7
:1018400004003A0012C9BF000080FB0087FF0700B8
:101850004D003700D6C8BF00684060000004E000BB
:1018600002003200E8FE070047003700E1C8BF0071
:101870000004E00003003A0070478000A6FE070065
:1018800041003700E1C8BF00E14F50000E003A00B0
:1018900081478000E0832000808F500007003600E1
:1018A00081478000108F2000808F500003003E0091
:1018B0008089200098FE07003300370080478000B1
:1018C00095FE070030003700E1C8BF00E24F50002E
:1018D00003003A00401F20008FFE07002A00370057
:1018E000E1C8BF00E34F500012003A00A847800053
:1018F0006140B90086FA0700008FBE000800E000D2
:1019000005003D0002002000037824001E00BE00F8
:10191000ABFA0700008FBE00D2CC2C00C30024001D
:101920001E00BE0003FB070036FB07003EFE07005B
:1019300015003700E1C8BF00E44F50000A003A002C
:101940009147800090052000808F500003003E00EA
:101950000000EB00F8FD07000B0037009047800007
:10196000F5FD070008003700A0478000F30F500086
:1019700003003E00A0478000EFFD07000200370093
:10198000A0478000ECFD07000060FE004F047800D7
:101990000080FA00000006000000FA00C662A800FD
:1019A000C622A800C642A800C602A800C682A80097
:1019B000C6A2A800C0062000001588003020200024
:1019C000101588002001200020158800300020001C
:1019D0003015880000FC2F00401588000000EB0047
:1019E000501588008560A9008D60A800A1E2A800BC
:1019F0000080FA0000000600809FBE00821F780071
:101A00003400F80000C0B300A00188000000FA0014
:101A100060478000F30F5000020036000000EB002A
:101A200060478800604780001214800080004000FA
:101A3000A0802000008040000208780060478000FD
:101A4000221480008000400020832000008040009D
:101A50000208780060478000321480008000400057
:101A6000A08520000080400002087800A6C2BF00C8
:101A70006F406000E34F50000F003A00D2C8BF0033
:101A8000F34F5000020036000040EB00D2E8B700F0
:101A90006047800002148000800040002088200001
:101AA0000080400002087800D2C8BF000040E80073
:101AB000D2E8B70014003700A6C2BF006F40600034
:101AC000E44F50000F003A00D3C8BF00F34F50005E
:101AD000020036000040EB00D3E8B700604780000A
:101AE0000214800080004000A08A20000080400096
:101AF00002087800D3C8BF000040E800D3E8B70070
:101B000001003700A6C2BF00604780000000E80067
:101B1000604788008560A9000060FE000080FA0030
:101B20003400F9004F0178004F00BE00004006006D
:101B30002600FA00889FBE006000B800000F9800E1
:101B4000110F98006000B8006007980071079800B6
:101B50006000B80040079800510798006000B80086
:101B600020079800310798006000B800008FBE0081
:101B70000040EB0040579800100037004E50900096
:101B80000080FB0080004000A0802000008040001A
:101B9000100078006101B8006E009000FE00900017
:101BA000000041008180490060079800710798009B
:101BB0004E5090000040E800405798004E50900072
:101BC000F34F5000EDFF36006E009000FE009000D5
:101BD000E00F5000E08F5800060035006E009000C6
:101BE000FE009000CAF9070010179800211798000E
:101BF000170037006E009000FE0090006101600049
:101C00006000B800030020000200700083807000B4
:101C10006E019000FE0190008301D1000281D3008B
:101C20000200700083807000B9F907001017980057
:101C3000211798001E119000AE1190001E10900008
:101C4000AE109000DEF907001017980021179800D9
:101C50002204260053CE23001E109000AE109000E8
:101C600034FA070067FA0700704788000040EB006D
:101C700040579800100037004E5090000080FB0045
:101C80008000400020832000008040001000780089
:101C90006101B8000E0890009E089000000041000D
:101CA00081804900000F9800110F98004E5090005D
:101CB0000040E800405798004E509000F34F50000D
:101CC000EDFF36000E0890009E089000E00F5000D7
:101CD000E08F5800060035000E0890009E08900026
:101CE0008BF90700700F9800011798001700370054
:101CF0000E0890009E089000610160006000B8002E
:101D00000300200002007000838070000E09900024
:101D10009E0990008301D1000281D300020070006F
:101D2000838070007AF90700700F980001179800FF
:101D30007E0990008E1190007E0890008E10900019
:101D40009FF90700700F98000117980042E12A00E0
:101D500073E423007E0890008E109000F5F90700D0
:101D600028FA0700804788000040EB0040579800A1
:101D7000100037004E5090000080FB0080004000B3
:101D8000A085200000804000100078006101B800AC
:101D90004E009000DE00900000004100818049006C
:101DA00040079800510798004E5090000040E8000E
:101DB000405798004E509000F24F5000EDFF360013
:101DC000284380006140B90051F90700500F980086
:101DD000610F98000800E00007003D0002002000AD
:101DE000037824005E089000EE08900074F9070064
:101DF000500F9800610F9800A299290093032400C6
:101E00005E089000EE089000CAF90700FDF907008F
:101E1000904788000040EB004057980010003700C2
:101E20004E5090000080FB00800040002088200081
:101E300000804000100078006101B8002E00900082
:101E4000BE009000000041008180490020079800FA
:101E5000310798004E5090000040E800405798002D
:101E60004E509000F24F5000EDFF3600204A8000A7
:101E70006104B8002E009000BE00900042012000D6
:101E800003002000FAF907000001BE000243B80079
:101E900003C0B90007027800000242000990B900AF
:101EA0000002420084037800420620000300200064
:101EB0000600BE00EEF90700A04788000040EB00D6
:101EC000405798000C0037004E5090000080FB00F7
:101ED00080004000A08A20000080400010007800B0
:101EE000010020001E0F40005E9748004E509000F9
:101EF0000040E800405798004E509000F24F5000CC
:101F0000F1FF36001E00BE00E00F5000E08F5800C9
:101F1000050035001E00BE00FDF80700300F9800D8
:101F2000410F9800150037001E0078006101600025
:101F30006000B80003002000020070008380700081
:101F40001E01BE008301D1000281D3000200700097
:101F500083807000EEF80700300F9800410F980062
:101F60003E099000CE0990003E089000CE089000F7
:101F700013F90700300F9800410F9800723D2A00B6
:101F800003F323003E089000CE08900069F9070093
:101F900002002000031A2400C5F9070099F9070080
:101FA000B04788004F04BE000080FA000000060021
:101FB0003400F800881F780008C0B300A80188002A
:101FC0004F0478000000FA0084C0A9000080FA00E5
:101FD0003400F900004006000000FA00C0092000AB
:101FE000200E880030C32000400E8800200028000A
:101FF000000E8800F0FF2700100E88000000EB00A4
:10200000500E880050012000600E880000F02F0064
:10201000A00E88000000EB00B00E88000000EB006E
:10202000C00E88000000EB00D00E8800200E80005B
:10203000300E880090E0A90088E0A900D802A9002D
:10204000D822A900D842A900D862A900710A2000AC
:1020500091407800F0C8B30000C0600001C6B30032
:1020600001407000A7E0B700D001A800D021A8006F
:10207000D041A8009160A80090E0A8000080FA007C
:10208000000006000000FA006000B8006049880007
:10209000714988006000B800804988009149880033
:1020A0006000B800A0498800B14988006000B8000D
:1020B000C0498800D14988006000B800E049880024
:1020C000F14988000000EB00400E88000000EB00A2
:1020D000A00E8800D822A900D842A900D862A90081
:1020E000D802A900DC22A900DC42A900DC62A90018
:1020F000DC02A9000040EB00FAE8B7000040EB006A
:10210000F9E8B700D788A9000060FE000060FE0073
:102110000060FE00DA82A9000080FA0000000600DC
:102120000000FA00DA82A80000F02F00A00E88005C
:1021300030032000400E8800D788A8000080FA00F5
:10214000000006003600F800809FBE00829FBE009F
:10215000849FBE00869FBE003400F80000C0B3001C
:10216000A00188000200FA00104880000000E8008A
:1021700010488800104880006101B80020498000A4
:1021800031498000800F5100818F590002003400D6
:102190000000EB0010488800F14780009005200007
:1021A000808F500007003E00612A20009140780097
:1021B00000CFB30000C060003040B300A6E2B7001B
:1021C00022003700F14780000040EB0010479800E4
:1021D00090052000808F50000200360011C0B3002F
:1021E00011479800F14780000041EB00024F780052
:1021F000300B2000808F500002003E0010C0B30062
:10220000004F78009E4090001E41780002C06000A0
:102210000004E00007003200612A200091407800AD
:1022200000CFB30000C060000024A000A6E2B70009
:1022300006003700612A20009140780000CFB300EB
:1022400000C060005040B300A6E2B700F047800035
:102250000000E800F0478800F1478000D01020001F
:10226000808F5000020036000000EB00F04788002D
:10227000304A80000000E800304A8800304A800080
:10228000E20F50002C0036000000EB00304A8800BE
:102290008147800080762F0080804000F00420007D
:1022A000808F500003003600F9C8BF006A4050001C
:1022B000F9E8B70081478000908C2000808F5000A3
:1022C00004003E00A1478000500E2000808F500087
:1022D00003003600F9C8BF006A405000F9E8B700B3
:1022E000A18F200091407800E0C7B30080CF50005C
:1022F00005003600F0C7B300FAE8B700F0C7B30036
:10230000F9E8B7000C003700A18F20009140780059
:1023100000C9BF0080CF50000500310000C9BF00D8
:10232000FAE8B70000C9BF00F9E8B70002003700BB
:10233000FAC8BF00F9E8B70088E0A9000060FE0015
:10234000BC02070088E0A9000060FE000080FA00DF
:102350003400F9004F03BE004F02BE004F01BE0023
:102360004F00BE003600F90000400600801F7800D4
:102370003400F80000C0B300A00188000000FA009B
:102380008960A900DA82A9000000EB00400E8800F5
:10239000D7E8A8000080FA003400F9004F00780068
:1023A000004006000000FA009CC0BF007040B3006F
:1023B0009CE0B7008E00A8008220A800D688A90063
:1023C0000080FA0000000600801F78003400F8004A
:1023D00000C0B300A00188000000FA000000EB007C
:1023E000400E88000000EB00A00E88000040EB00CB
:1023F000FAE8B7000040EB00F9E8B700D7E8A8001A
:102400008600A9000080FA003400F9004F0078002F
:10241000004006000000FA008047800081762F000F
:1024200001004000F40F5000050036008047800096
:102430008189200000805000F40F500002003E000F
:10244000000000003B0037008147800080762F00AD
:102450008080400040062000808F5000060036003B
:1024600081478000808920008100500040062000C4
:10247000808F50000C003E00814780008089200042
:10248000808F500004003600FAC8BF000040E90009
:10249000FAE8B70027003700FAC8BF000040E8009C
:1024A000FAE8B700230037008147800080762F00CC
:1024B00080804000800C2000808F50000600360095
:1024C000814780008089200081005000800C20001E
:1024D000808F50000C003E008147800080892000E2
:1024E000808F500004003600FAC8BF0063405000DF
:1024F000FAE8B7000F003700FAC8BF000040E80054
:10250000FAE8B7000B00370081478000808920007F
:10251000808F500004003600FAC8BF0064405000AD
:10252000FAE8B70003003700FAC8BF000040E8002F
:10253000FAE8B700A18F200091407800E0C7B3000F
:1025400080CF500005003600F0C7B300FAE8B700AE
:10255000F0C7B300F9E8B7000C003700A18F2000E6
:102560009140780000C9BF0080CF500005003100C5
:1025700000C9BF00FAE8B70000C9BF00F9E8B7001A
:1025800002003700FAC8BF00F9E8B7000080FA007F
:10259000000006000000FA00E04780000000E800AC
:1025A000E0478800E147800030022000808F500023
:1025B0000300360097FF07000000EB00E0478800AB
:1025C0000080FA00000006000400FA00889FBE00A8
:1025D000884780006140B9004DF70700008FBE00BA
:1025E0000800E00005003D00020020000378240000
:1025F0001E00BE0072F70700008FBE001E01BE0065
:1026000000002800915024006CF70700A2702D00F4
:1026100033C22300C7F7070060498800714988006A
:10262000604980007149800035F70700E10F5000D4
:1026300014003C006049800071498000824980009C
:10264000934980005DF70700C2498000D3498000AC
:102650005BF707000004BE006049800071498000FC
:10266000D2CC2C00C3DC2300B2F707000001BE006F
:102670000800BE0052F70700C0498800D149880011
:102680000900370060498000714980000001BE00E8
:102690004BF70700C2498000D349800048F7070084
:1026A000C0498800D1498800604980007149800094
:1026B0008049880091498800C0498000D149800044
:1026C00002002000832424003BF807000000E00003
:1026D000010035000500370000002000812424009F
:1026E000C0498800D14988000C003700C0498000EB
:1026F000D149800002002000C32F240030F80700D9
:102700000000E00001003C00040037000000200051
:10271000E12F2400C0498800D1498800C0498000C9
:10272000D1498000B7F70700FAE8B7004F04BE00B0
:102730000080FA00000006000000FA0071478000E7
:10274000D0488000808F500015003E003048800047
:102750000000E800304888003148800020E524006F
:10276000808F500006003600404880000000E800DE
:10277000404888000000EB0030488800D748A80097
:1027800040488000E10F5000560036000000EB008A
:1027900040488800D7A8A800D7C8A9005100370032
:1027A00071478000E0488000808F500017003100A2
:1027B00071478000D0488000808F5000130039009E
:1027C000D7C8BF000080FB004500DE00614060000C
:1027D000614060004501DD00718D2000914078006E
:1027E000F0CDB30000C0600002407000D7E8B70031
:1027F000D7C8A9000000EB00304888000000EB00BB
:1028000040488800D748A90036003700714780004B
:10281000E0488000808F50000C0039007147800034
:10282000F0488000808F500008003E00D7A8A90023
:10283000D7C8A9000000EB00304888000000EB007A
:1028400040488800D748A90026003700714780001B
:10285000C0488000808F5000170031007147800011
:10286000F0488000808F500013003600D7C8BF00AA
:102870000080FB004600DE006140600061406000B7
:102880004601DD00718D200091407800F0CBB3004F
:1028900000C0600002407000D7E8B700D7A8A900C8
:1028A0000000EB00304888000000EB004048880042
:1028B000D748A9000B00370071478000C04880004E
:1028C000808F500007003900D7C8A800D7A8A900FA
:1028D0000000EB00304888000000EB004048880012
:1028E000D748A9000080FA00000006000000FA00A6
:1028F000A1478000B0488000808F5000030039005D
:10290000D708A800D6E8A90009003700A147800031
:10291000A0488000808F500003003900D708A9002C
:10292000D6E8A80002003700D708A900D6E8A90019
:10293000D7C8BF00684060000004E00027003A00EC
:10294000D6C8BF0001C8B300014060000004E00029
:1029500014003200504880000000E8005048880011
:1029600051488000B0442000808F50000D00360098
:10297000604880000000E800604888000000EB002C
:1029800050488800604880000000E00005003200E8
:10299000D768A8000000EB00504888000000EB005A
:1029A00060488800D7C8BF00614060000004E000B4
:1029B0000A003200504880000000E80050488800BB
:1029C00051488000301F2000808F500003003600E7
:1029D000D768A8000000EB00504888000080FA008B
:1029E000000006000000FA00D7C8BF000042B20095
:1029F0000004E00002003200D6C8A9001A00370027
:102A0000D7C8BF000044B2000004E000020032005A
:102A1000D6C8A90014003700D7C8BF0068406000BE
:102A20000004E00002003200D6C8A9000E00370002
:102A3000D7C8BF0001C8B300014060000004E00037
:102A400002003200D6C8A90007003700D6C8BF0070
:102A5000614060000004E00002003A00D6C8A9000E
:102A600001003700D6C8A800D6C8BF000044B20095
:102A70000004E00002003A0082FD07000600370073
:102A8000D6C8BF00614060000004E00001003200D1
:102A9000A3FD0700BFFE07000080FA00000006004B
:102AA0000000FA00B1478000200D2000808F500008
:102AB00002003600E262A80005003700B14780003E
:102AC000300B2000808F500001003E00E262A90020
:102AD0000080FA00000006000200FA007147800042
:102AE0000040EB001047980060112000808F5000DC
:102AF0000200360011C0B3001147980071478000F2
:102B00000041EB00024F780000122000808F50003F
:102B100002003E0010C0B300004F78009E409000BD
:102B20001E41780002C060000004E0000200320094
:102B3000DCA2A80007003700214880001048800070
:102B4000808F500002003600DCA2A8000100370090
:102B5000DCA2A9007147800080102000808F500007
:102B6000050036007047800081EF2F000100400013
:102B700020488800020037000000EB002048880051
:102B80000080FA00000006000200FA003DFD070088
:102B900081FB070010FD070092F7070039FD0700D1
:102BA000A4F70700704880000000E8007048880023
:102BB00071488000C05D2000808F50000400360006
:102BC00000B4200070488800D6A8A8000100370093
:102BD000D6A8A900F04680000000E800F046880072
:102BE000F1468000401F2000808F50000300360017
:102BF0000000EB00F0468800D9FA0700CCFB070084
:102C00003AFF0700D6C8BF000042B2000004E0004F
:102C100002003A001BFD07000200370071FF0700A9
:102C2000C5FE07009EFF0700D6C8BF000042B200E5
:102C30008040EB00114798000004E00002003A00D9
:102C400012C0B30012479800E1C8BF008040EB00FB
:102C5000014F7800E54F50000200360012C0B3006B
:102C6000024F78009E4090001E41780002C0600034
:102C70000004E00015003200804880000000E800F9
:102C80008048880081488000C0262000808F500046
:102C90000E0036000000EB00804888000000EB00CA
:102CA0007048880012C9BF000040E80012E9B70070
:102CB000219120009140780020C8B30080CF5000BF
:102CC0000200360020C3B30012E9B70012FA070071
:102CD00081FF0700B3FF37003200F8009001880041
:102CE0006118E100040032007018E10002003200B7
:102CF000F0FF2F00030037003119BA008301E9000B
:102D0000FDFF3A003200F90000000600849FBE007B
:102D10004220A900440424006110E1000A003200AE
:102D2000540424007010E100070032006404240001
:102D3000F5FF2F000510E10003003200F0FF2F0027
:102D40004F02BE00000006003200F800203B880061
:102D5000113B8800043B88004200F800000E200070
:102D60004220B70050052000303B8800A00A200018
:102D7000303B880061E7A800000000000000000070
:102D800061E7AF00FEFF37000000EB004200F900F2
:102D90003200F9004F02BE0000000600841F7800D8
:102DA0004220A900440024006118E100060032001E
:102DB000540024007018E100030032004F02780034
:102DC000F0FF2F00000006003200F800910188009B
:102DD000821F78003019BB008301E900FDFF3A0033
:102DE000213B88004F017800123B8800043B88009B
:102DF0004200F800000E20004220B70050052000DD
:102E0000303B8800A00A2000303B880061E7A80022
:102E1000000000000000000061E7AF00FEFF370087
:102E20000000EB004200F9003200F9004F02780088
:102E3000000006000000FA00889FBE00914A800052
:102E4000F0132000808F5000020036000000EB00DD
:102E5000904A8800914A8000F0092000808F50003D
:102E600046003600F9C8BF000081FB00914A80008F
:102E700010F62F000080400080004000A08829004C
:102E800000804000100078000090B900404A88009F
:102E9000404A80004700DE00404A8800404A8000E7
:102EA000604A8800604A8000404A8800200E800006
:102EB0006104B800404A80006103B80088007800CF
:102EC00006007800000AB80007C0B90005017800C4
:102ED0000001410009B0B900000141008202780000
:102EE000744A8800854A8800704A8000814A8000C0
:102EF0004809DD004800DE0000007100C808DE005F
:102F0000704A8800814A8800704A8000814A8000A7
:102F1000504A8800200E80000000400080007800A9
:102F2000504A8000808F500004003100200E800045
:102F300000004000504A880005003700504A8000D9
:102F40000000E00002003A0010002000504A880013
:102F5000200E80000000400080007800504A800071
:102F600000805000B00E8800200E8000000040005D
:102F70000080E800C00E88003D003700F9C8BF009F
:102F80000081FB00904A800080004000A08829005A
:102F900000804000100078000090B900404A88008E
:102FA000404A80004700DE00404A8800404A8000D6
:102FB000604A8800604A8000404A8800200E8000F5
:102FC0006104B800404A80006103B80088007800BE
:102FD00006007800000AB80007C0B90005017800B3
:102FE0000001410009B0B9000001410082027800EF
:102FF000744A8800854A8800704A8000814A8000AF
:103000004809DD004800DE0000007100C808DE004D
:10301000704A8800814A8800704A8000814A800096
:10302000504A8800200E8000000040008000780098
:10303000504A8000808F500004003100200E800034
:1030400000004000504A880005003700504A8000C8
:103050000000E00002003A0010002000504A880002
:10306000504A8000B00E88000000EB00C00E8800BF
:10307000904A80000000E800904A880088E0A9009B
:103080000060FE004F04BE000080FA000000060051
:10309000FEFD0000FBF7000000EF0000C0F900009B
:1030A000A4B000009992000082F800008090000017
:1030B000407900002430000019120000027800005E
:1030C00000100000010200000408000010200000B1
:1030D000408000007F3F00001F0F0000070300003A
:1030E000010000007FBF0000DFEF0000F7BD00001F
:1030F000FDFE00009FAF0000B7BB0000BDBE00009A
:1031000000000000DFEF0000F7FB0000FDFE000004
:1031100000000000000000000A0000001400000091
:103120001E00000028000000320000003C000000EB
:1031300046000000500000005A000000630000003C
:103140006D00000077000000810000008A00000090
:10315000940000009E000000A7000000B1000000E5
:10316000BA000000C3000000CD000000D60000003F
:10317000DF000000E8000000F1000000FA0000009D
:10318000020100000B010000140100001C010000FE
:10319000240100002C010000350100003C0100006A
:1031A000440100004C010000540100005B010000DC
:1031B000620100006A010000710100007701000057
:1031C0007E010000850100008B01000092010000DB
:1031D000980100009E010000A4010000A901000068
:1031E000AF010000B4010000B9010000BE01000001
:1031F000C3010000C8010000CC010000D0010000A4
:10320000D5010000D9010000DC010000E001000050
:10321000E3010000E6010000E9010000EC0100000C
:10322000EF010000F1010000F4010000F6010000D0
:10323000F8010000F9010000FB010000FC010000A2
:10324000FD010000FE010000FF010000FF01000081
:10325000FF01000000020000FF010000FF0100006C
:10326000FF010000FE010000FD010000FC01000064
:10327000FB010000F9010000F8010000F601000068
:10328000F4010000F1010000EF010000EC0100007A
:10329000E9010000E6010000E3010000E001000098
:1032A000DC010000D9010000D5010000D0010000C0
:1032B000CC010000C8010000C3010000BE010000F5
:1032C000B9010000B4010000AF010000A901000035
:1032D000A40100009E01000098010000920100007E
:1032E0008B010000850100007E01000077010000D5
:1032F000710100006A010000620100005B01000032
:10330000540100004C010000440100003C01000099
:10331000350100002C010000240100001C01000008
:10332000140100000B01000002010000FA0000007F
:10333000F1000000E8000000DF000000D6000000FF
:10334000CD000000C3000000BA000000B100000082
:10335000A70000009E000000940000008A0000000A
:1033600081000000770000006D0000006300000095
:103370005A00000050000000460000003C00000021
:1033800032000000280000001E00000014000000B1
:103390000A00000000000000DE0800006A000000D3
:1033A000020000000000000000000000000000001B
:1033B000000000000000000000000000000000000D
:1033C00000000000000000000100000000000000FC
:1033D00000280000000000000000000000000000C5
:1033E000000000000000000000550000E300E600BF
:1033F000004A0100D8000800012C01001000000064
:10340000001A000000000800010000000000000099
:1034100000000000000000000000000000000000AC
:10342000000000000000000000000000000000009C
:103430000000000000080000DE00000000000000A6
:10344000520900000200000002000000000000001D
:10345000480900000A000000000000000000000011
:103460000000FE00FFFFFF00FFFFFF00FFFFFF0067
:10347000FFFFFF00FFFFFF00FFFFFF00FFFFFF0058
:10348000FFFFFF00FFFFFF00FFFFFF00FFFFFF0048
:10349000FFFFFF00FFFFFF00FFFFFF00FFFFFF0038
:1034A000FFFFFF00FFFFFF00FFFFFF00FFFFFF0028
:0200000400FFFB
:10F800005900000018000000FFFF0000FFFF00008B
:10F81000FFFF0000FFFF0000FFFF0000FFFF0000F0
:10F82000FFFF0000FFFF0000FFFF0000FFFF0000E0
:10F83000FFFF0000FFFF0000FFFF0000FFFF0000D0
:10F84000FFFF0000FFFF0000FFFF0000FFFF0000C0
:0200000401F009
:1000000002C3000003000000B38700000F310000AE
:0C0010000F3300000700000003C00000D8
:020000040100F9
:100B8000FFFFFF00FFFFFF00FFFFFF00FFFFFF0071
:100B9000FFFFFF00FFFFFF00FFFFFF00FFFFFF0061
:100BA000FFFFFF00FFFFFF00FFFFFF00FFFFFF0051
:100BB000FFFFFF00FFFFFF00FFFFFF00FFFFFF0041
:100BC000FFFFFF00FFFFFF00FFFFFF00FFFFFF0031
:100BD000FFFFFF00FFFFFF00FFFFFF00FFFFFF0021
:100BE000FFFFFF00FFFFFF00FFFFFF00FFFFFF0011
:100BF000FFFFFF00FFFFFF00FFFFFF00FFFFFF0001
:00000001FF
