:080000001001040000000000E3
:100200000000E0004220AF00040037008313090023
:10021000000000000000E900FCFF3A0000000600BA
:100220000F982000F09F200020A0B70000000000E1
:1002300081E0A800A8A2EF00C6A2A900CAA2A90056
:10024000803E20000001020000000000C6A2A900BC
:10025000CAA2A800803E20000001020000000000A9
:08026000F5FF37000040FE002D
:0200000401F009
:10000000020300FF3F0000FF338700FF0F3100FFB6
:0C0010000F3300FF070000FF03C000FFDB
:00000001FF
;DSPIC30F2010
;CRC=E160  CREATED="29-May-18 11:42"
