:080000001001040000000000E3
:100200000000E0004220AF0004003700CB070900E7
:10021000000000000000E900FCFF3A0000000600BA
:100220000F982000F09F200020A0B70000000000E1
:1002300081E0A80064002000443A8800A8A2EF00F2
:10024000C602A900CA02A900803E200000010200E7
:1002500000000000C602A900CA02A800803E2000DB
:100260000001020000000000F5FF37000040FE0022
:0200000401F009
:100000000F0100FF3F0000FF338700FF0F3100FFAB
:0C0010000F3300FF070000FF03C000FFDB
:00000001FF
;DSPIC30F2010
;CRC=E8BE  CREATED="01-May-18 08:46"
