:04000000D6EF02F045
:08000800046ED8CF05F0E0CF33
:1000100006F00001E9CF0CF0EACF07F0E1CF08F0DD
:10002000E2CF09F0D9CF0AF0DACF0BF0F3CF12F01C
:10003000F4CF13F0FACF14F0F5CF15F0F6CF16F099
:10004000F7CF17F000C00EF001C00FF002C010F0A3
:1000500003C011F09DA230EF00F09EB25EEF02F0FF
:100060000EC000F00FC001F010C002F011C003F08C
:100070000CC0E9FF07C0EAFF078E08C0E1FF09C016
:10008000E2FF0AC0D9FF0BC0DAFF12C0F3FF13C0B2
:10009000F4FF14C0FAFF15C0F5FF16C0F6FF17C035
:1000A000F7FF045006C0E0FF05C0D8FF1000BC0FEA
:1000B000F66E000EF7220900F55012000000000055
:1000C000000000000000000005000B0010001500FB
:1000D0001B00200025002B00300035003B004000B5
:1000E00045004B00500055005A00600065006A0052
:1000F000700075007A007F0085008A008F009400F0
:100100009A009F00A400A900AF00B400B900BE008F
:10011000C300C900CE00D300D800DD00E200E80033
:10012000ED00F200F700FC00010106010B011001D7
:1001300015011A011F01240129012E013301380183
:100140003D01420147014C01510156015B01600133
:10015000640169016E01730178017C0181018601EE
:100160008B018F01940199019D01A201A701AB01AF
:10017000B001B401B901BE01C201C701CB01D00178
:10018000D401D901DD01E101E601EA01EE01F3014B
:10019000F701FB010002040208020C021002150222
:1001A00019021D022102250229022D023102350207
:1001B00039023D024102450249024D0251025402F8
:1001C00058025C026002630267026B026E027202F6
:1001D000760279027D028002840287028B028E02FF
:1001E0009102950298029B029F02A202A502A80218
:1001F000AC02AF02B202B502B802BB02BE02C1023B
:10020000C402C702CA02CD02D002D202D502D8026D
:10021000DB02DD02E002E302E502E802EB02ED02AE
:10022000F002F202F502F702F902FC02FE020003FC
:1002300003030503070309030B030D031003120354
:1002400014031603180319031B031D031F032103C3
:10025000230324032603280329032B032D032E0342
:1002600030033103330334033503370338033903D1
:100270003B033C033D033E033F0340034103430371
:1002800043034403450346034703480349034A0322
:100290004A034B034C034C034D034D034E034E03E3
:1002A0004F034F03500350035003510351035103B5
:1002B0005103510352035203520352035203520398
:1002C000520352035103510351035103510350038D
:1002D000500350034F034F034E034E034D034D0392
:1002E0004C034C034B034A034A03490348034703A7
:1002F00046034503440343034303410340033F03D1
:100300003E033D033C033B03390338033703350306
:1003100034033303310330032E032D032B0329034E
:10032000280326032403230321031F031D031B03A8
:100330001903180316031403120310030D030B0310
:1003400009030703050303030003FE02FC02F9028D
:10035000F702F502F202F002ED02EB02E802E5021A
:10036000E302E002DD02DB02D802D502D202D002B3
:10037000CD02CA02C702C402C102BE02BB02B80259
:10038000B502B202AF02AC02A802A502A2029F020D
:100390009B029802950291028E028B0287028402D0
:1003A00080027D027902760272026E026B0267029F
:1003B000630260025C025802540251024D0249027B
:1003C000450241023D023902350231022D02290265
:1003D000250221021D021902150210020C02080258
:1003E00004020002FB01F701F301EE01EA01E6015C
:1003F000E101DD01D901D401D001CB01C701C20166
:10040000BE01B901B401B001AB01A701A2019D0178
:10041000990194018F018B01860181017C01780192
:1004200073016E016901640160015B0156015101B4
:100430004C01470142013D01380133012E012901E0
:1004400024011F011A01150110010B010601010110
:10045000FC00F700F200ED00E800E200DD00D8004B
:10046000D300CE00C900C300BE00B900B400AF0085
:10047000A900A4009F009A0094008F008A008500C4
:100480007F007A00750070006A00650060005A0005
:10049000550050004B00450040003B003500300047
:1004A0002B00250020001B00150010000B0005008C
:1004B000000000000000000000000000800E1B246F
:1004C000196E000E1C201A6E1A501C5C15E303E115
:1004D0001B50195C11E225B008D0F00EBD169492A5
:1004E0008B920C0EBA6E258007D0F00EBA1694943B
:1004F0008B940C0EBD6E25901A30206E19301F6E35
:1005000020321F3220321F3220321F3220321F325F
:1005100020321F3220321F32010E201620C024F05C
:100520001FC023F0D8902334026E2434036E02508F
:1005300003C0F7FFBCDD0900F5CF03F0266E03C052
:1005400027F02732263227322632273226C0BEFF36
:1005500027322730300B006EBD50CF0B0010BD6E20
:10056000D8902334026E2434036E025003C0F7FF88
:100570009EDD0900F5CF03F0266E03C027F0273279
:10058000263227322632273226C0BBFF27322730B9
:10059000300B006EBA50CF0B0010BA6E1AC01CF0B0
:1005A00019C01BF09E929E9230EF00F0F86AD09E28
:1005B000078EC150C00B0F09C16E070EB46E000E3E
:1005C000936E0409CA6EE90ECB6EF00EBD16BA1614
:0A05D0009D82C00EF212FFD7030057
:020000040030CA
:0E00000023CE3E1E008781000FC00FE00F4090
:00000001FF
;PIC18F2550
;CRC=F16C  CREATED="16-May-18 16:08"
